{
  "contractName": "logContract",
  "abi": [
    {
      "anonymous": false,
      "inputs": [
        {
          "indexed": false,
          "name": "cate",
          "type": "string"
        },
        {
          "indexed": false,
          "name": "action",
          "type": "string"
        },
        {
          "indexed": false,
          "name": "updatetime",
          "type": "string"
        }
      ],
      "name": "evtUpdate",
      "type": "event"
    },
    {
      "constant": false,
      "inputs": [
        {
          "name": "_from_account_address",
          "type": "address"
        },
        {
          "name": "_to_account_address",
          "type": "address"
        },
        {
          "name": "_contract_address",
          "type": "address"
        },
        {
          "name": "_contract_exec_result",
          "type": "string"
        },
        {
          "name": "_transfer_coins",
          "type": "uint16"
        },
        {
          "name": "_update_time",
          "type": "string"
        }
      ],
      "name": "sendLog",
      "outputs": [],
      "payable": true,
      "stateMutability": "payable",
      "type": "function"
    },
    {
      "constant": true,
      "inputs": [
        {
          "name": "_index",
          "type": "uint256"
        }
      ],
      "name": "getLog",
      "outputs": [
        {
          "components": [
            {
              "name": "from_account_address",
              "type": "address"
            },
            {
              "name": "to_account_address",
              "type": "address"
            },
            {
              "name": "contract_address",
              "type": "address"
            },
            {
              "name": "contract_exec_result",
              "type": "string"
            },
            {
              "name": "transfer_coins",
              "type": "uint16"
            },
            {
              "name": "update_time",
              "type": "string"
            }
          ],
          "name": "",
          "type": "tuple"
        }
      ],
      "payable": false,
      "stateMutability": "view",
      "type": "function"
    },
    {
      "constant": true,
      "inputs": [],
      "name": "getTotalCount",
      "outputs": [
        {
          "name": "totalCount",
          "type": "uint256"
        }
      ],
      "payable": false,
      "stateMutability": "view",
      "type": "function"
    }
  ],
  "bytecode": "0x608060405234801561001057600080fd5b50610d24806100206000396000f3fe608060405260043610610057576000357c0100000000000000000000000000000000000000000000000000000000900463ffffffff1680633206b2c61461005c57806356d42bb3146100995780635d261370146100c4575b600080fd5b34801561006857600080fd5b50610083600480360361007e919081019061096f565b6100e0565b6040516100909190610b77565b60405180910390f35b3480156100a557600080fd5b506100ae61037a565b6040516100bb9190610b99565b60405180910390f35b6100de60048036036100d991908101906108b6565b610387565b005b6100e8610702565b60006001600084815260200190815260200160002090508060c060405190810160405290816000820160009054906101000a900473ffffffffffffffffffffffffffffffffffffffff1673ffffffffffffffffffffffffffffffffffffffff1673ffffffffffffffffffffffffffffffffffffffff1681526020016001820160009054906101000a900473ffffffffffffffffffffffffffffffffffffffff1673ffffffffffffffffffffffffffffffffffffffff1673ffffffffffffffffffffffffffffffffffffffff1681526020016002820160009054906101000a900473ffffffffffffffffffffffffffffffffffffffff1673ffffffffffffffffffffffffffffffffffffffff1673ffffffffffffffffffffffffffffffffffffffff168152602001600382018054600181600116156101000203166002900480601f0160208091040260200160405190810160405280929190818152602001828054600181600116156101000203166002900480156102a75780601f1061027c576101008083540402835291602001916102a7565b820191906000526020600020905b81548152906001019060200180831161028a57829003601f168201915b505050505081526020016004820160009054906101000a900461ffff1661ffff1661ffff168152602001600582018054600181600116156101000203166002900480601f0160208091040260200160405190810160405280929190818152602001828054600181600116156101000203166002900480156103695780601f1061033e57610100808354040283529160200191610369565b820191906000526020600020905b81548152906001019060200180831161034c57829003601f168201915b505050505081525050915050919050565b6000600280549050905090565b61038f610702565b60c0604051908101604052808873ffffffffffffffffffffffffffffffffffffffff1681526020018773ffffffffffffffffffffffffffffffffffffffff1681526020018673ffffffffffffffffffffffffffffffffffffffff1681526020018581526020018461ffff16815260200183815250905080600160008054815260200190815260200160002060008201518160000160006101000a81548173ffffffffffffffffffffffffffffffffffffffff021916908373ffffffffffffffffffffffffffffffffffffffff16021790555060208201518160010160006101000a81548173ffffffffffffffffffffffffffffffffffffffff021916908373ffffffffffffffffffffffffffffffffffffffff16021790555060408201518160020160006101000a81548173ffffffffffffffffffffffffffffffffffffffff021916908373ffffffffffffffffffffffffffffffffffffffff160217905550606082015181600301908051906020019061050b92919061077f565b5060808201518160040160006101000a81548161ffff021916908361ffff16021790555060a082015181600501908051906020019061054b92919061077f565b509050506002819080600181540180825580915050906001820390600052602060002090600602016000909192909190915060008201518160000160006101000a81548173ffffffffffffffffffffffffffffffffffffffff021916908373ffffffffffffffffffffffffffffffffffffffff16021790555060208201518160010160006101000a81548173ffffffffffffffffffffffffffffffffffffffff021916908373ffffffffffffffffffffffffffffffffffffffff16021790555060408201518160020160006101000a81548173ffffffffffffffffffffffffffffffffffffffff021916908373ffffffffffffffffffffffffffffffffffffffff160217905550606082015181600301908051906020019061066e92919061077f565b5060808201518160040160006101000a81548161ffff021916908361ffff16021790555060a08201518160050190805190602001906106ae92919061077f565b50505050600160008082825401925050819055507fcc727bf07864fa56f4c211ed0acd8b40575efb013d7ac0081b3e93611d6a3bef826040516106f19190610b2f565b60405180910390a150505050505050565b60c060405190810160405280600073ffffffffffffffffffffffffffffffffffffffff168152602001600073ffffffffffffffffffffffffffffffffffffffff168152602001600073ffffffffffffffffffffffffffffffffffffffff16815260200160608152602001600061ffff168152602001606081525090565b828054600181600116156101000203166002900490600052602060002090601f016020900481019282601f106107c057805160ff19168380011785556107ee565b828001600101855582156107ee579182015b828111156107ed5782518255916020019190600101906107d2565b5b5090506107fb91906107ff565b5090565b61082191905b8082111561081d576000816000905550600101610805565b5090565b90565b60006108308235610c6d565b905092915050565b600082601f830112151561084b57600080fd5b813561085e61085982610be1565b610bb4565b9150808252602083016020830185838301111561087a57600080fd5b610885838284610c97565b50505092915050565b600061089a8235610c7f565b905092915050565b60006108ae8235610c8d565b905092915050565b60008060008060008060c087890312156108cf57600080fd5b60006108dd89828a01610824565b96505060206108ee89828a01610824565b95505060406108ff89828a01610824565b945050606087013567ffffffffffffffff81111561091c57600080fd5b61092889828a01610838565b935050608061093989828a0161088e565b92505060a087013567ffffffffffffffff81111561095657600080fd5b61096289828a01610838565b9150509295509295509295565b60006020828403121561098157600080fd5b600061098f848285016108a2565b91505092915050565b6109a181610c23565b82525050565b60006109b282610c18565b8084526109c6816020860160208601610ca6565b6109cf81610cd9565b602085010191505092915050565b60006109e882610c0d565b8084526109fc816020860160208601610ca6565b610a0581610cd9565b602085010191505092915050565b6000600382527f6c6f6700000000000000000000000000000000000000000000000000000000006020830152604082019050919050565b6000601082527f6e6577206c6f6720696e736572746564000000000000000000000000000000006020830152604082019050919050565b600060c083016000830151610a996000860182610998565b506020830151610aac6020860182610998565b506040830151610abf6040860182610998565b5060608301518482036060860152610ad782826109dd565b9150506080830151610aec6080860182610b11565b5060a083015184820360a0860152610b0482826109dd565b9150508091505092915050565b610b1a81610c35565b82525050565b610b2981610c63565b82525050565b60006060820190508181036000830152610b4881610a13565b90508181036020830152610b5b81610a4a565b90508181036040830152610b6f81846109a7565b905092915050565b60006020820190508181036000830152610b918184610a81565b905092915050565b6000602082019050610bae6000830184610b20565b92915050565b6000604051905081810181811067ffffffffffffffff82111715610bd757600080fd5b8060405250919050565b600067ffffffffffffffff821115610bf857600080fd5b601f19601f8301169050602081019050919050565b600081519050919050565b600081519050919050565b6000610c2e82610c43565b9050919050565b600061ffff82169050919050565b600073ffffffffffffffffffffffffffffffffffffffff82169050919050565b6000819050919050565b6000610c7882610c43565b9050919050565b600061ffff82169050919050565b6000819050919050565b82818337600083830152505050565b60005b83811015610cc4578082015181840152602081019050610ca9565b83811115610cd3576000848401525b50505050565b6000601f19601f830116905091905056fea265627a7a72305820a1c4aa231bc06afad0f36e0ce904fa3db5fd9fbe9301dddbe3bb6f1e20ad7d7c6c6578706572696d656e74616cf50037",
  "source": "pragma solidity ^0.5.0;\npragma experimental ABIEncoderV2; //enable for return struct logData\n\ncontract logContract {\n    \n    uint256 logCount;\n    struct logData {\n        address from_account_address;\n        //string from_account_name;\n        address to_account_address;\n        //string to_account_name;\n        //string contract_name;\n        address contract_address;\n        //address contract_parent_address;\n        //string playlist_name;\n        string contract_exec_result;\n        uint16 transfer_coins;\n        //string action_name;\n        string update_time;\n    }\n    \n    event evtUpdate(string cate, string action, string updatetime);\n\n    mapping(uint => logData) private logStore;\n    logData[] private logDataList;\n\n    //send log into blkchain\n    function sendLog(address _from_account_address, address _to_account_address, address _contract_address, string memory  _contract_exec_result, uint16 _transfer_coins, string memory _update_time) public payable {\n        logData memory log = logData(_from_account_address, _to_account_address, _contract_address, _contract_exec_result, _transfer_coins, _update_time);\n        logStore[logCount] = log; \n        logDataList.push(log);\n        logCount +=1 ;\n        \n        emit evtUpdate(\"log\", \"new log inserted\", _update_time);\n\n}\n    //get single log by index\n    function getLog(uint _index) public view returns (logData memory) {\n        logData storage loginstance = logStore[_index];\n        return loginstance;\n    }\n    \n    //get current count of logDatas \n    function getTotalCount() public view returns(uint totalCount) {\n        return logDataList.length;\n    }\n\n}",
  "sourcePath": "/Users/admin/Documents/Works/rentalsignage/contracts/LogContract.sol",
  "compiler": {
    "name": "solc",
    "version": "0.5.0+commit.1d4f565a.Emscripten.clang"
  },
  "schemaVersion": "3.0.2",
  "updatedAt": "2019-03-22T05:16:34.530Z",
  "devdoc": {
    "methods": {}
  },
  "userdoc": {
    "methods": {}
  }
}