{
  "contractName": "MediaContract",
  "abi": [
    {
      "constant": true,
      "inputs": [
        {
          "name": "",
          "type": "uint256"
        }
      ],
      "name": "MediaDataArray",
      "outputs": [
        {
          "name": "id",
          "type": "uint256"
        },
        {
          "name": "Name",
          "type": "string"
        },
        {
          "name": "CheckSum",
          "type": "string"
        },
        {
          "name": "status",
          "type": "uint8"
        }
      ],
      "payable": false,
      "stateMutability": "view",
      "type": "function",
      "signature": "0xc7438fd3"
    },
    {
      "constant": false,
      "inputs": [
        {
          "name": "_id",
          "type": "uint256"
        },
        {
          "name": "_Name",
          "type": "string"
        },
        {
          "name": "_CheckSum",
          "type": "string"
        }
      ],
      "name": "newMedia",
      "outputs": [],
      "payable": false,
      "stateMutability": "nonpayable",
      "type": "function",
      "signature": "0xa9d51d19"
    },
    {
      "constant": true,
      "inputs": [
        {
          "name": "_id",
          "type": "uint256"
        }
      ],
      "name": "getMediaStatus",
      "outputs": [
        {
          "name": "",
          "type": "uint8"
        }
      ],
      "payable": false,
      "stateMutability": "view",
      "type": "function",
      "signature": "0x12303da6"
    },
    {
      "constant": true,
      "inputs": [
        {
          "name": "_id",
          "type": "uint256"
        }
      ],
      "name": "getMediaInfo",
      "outputs": [
        {
          "components": [
            {
              "name": "id",
              "type": "uint256"
            },
            {
              "name": "Name",
              "type": "string"
            },
            {
              "name": "CheckSum",
              "type": "string"
            },
            {
              "name": "status",
              "type": "uint8"
            }
          ],
          "name": "",
          "type": "tuple"
        }
      ],
      "payable": false,
      "stateMutability": "view",
      "type": "function",
      "signature": "0xa1bffc20"
    },
    {
      "constant": false,
      "inputs": [
        {
          "name": "_id",
          "type": "uint256"
        },
        {
          "name": "_status",
          "type": "uint8"
        }
      ],
      "name": "updateStatus",
      "outputs": [],
      "payable": false,
      "stateMutability": "nonpayable",
      "type": "function",
      "signature": "0x3a1b3d31"
    },
    {
      "constant": true,
      "inputs": [
        {
          "name": "_name",
          "type": "string"
        },
        {
          "name": "_checksum",
          "type": "string"
        }
      ],
      "name": "CheckMediaSum",
      "outputs": [
        {
          "name": "",
          "type": "bool"
        }
      ],
      "payable": false,
      "stateMutability": "view",
      "type": "function",
      "signature": "0xd4c76e75"
    }
  ],
  "bytecode": "0x608060405234801561001057600080fd5b50610ec6806100206000396000f3fe608060405260043610610078576000357c0100000000000000000000000000000000000000000000000000000000900463ffffffff16806312303da61461007d5780633a1b3d31146100ba578063a1bffc20146100e3578063a9d51d1914610120578063c7438fd314610149578063d4c76e7514610189575b600080fd5b34801561008957600080fd5b506100a4600480360361009f9190810190610b3f565b6101c6565b6040516100b19190610d80565b60405180910390f35b3480156100c657600080fd5b506100e160048036036100dc9190810190610be7565b6101f3565b005b3480156100ef57600080fd5b5061010a60048036036101059190810190610b3f565b610226565b6040516101179190610d0b565b60405180910390f35b34801561012c57600080fd5b5061014760048036036101429190810190610b68565b6103c5565b005b34801561015557600080fd5b50610170600480360361016b9190810190610b3f565b610535565b6040516101809493929190610d2d565b60405180910390f35b34801561019557600080fd5b506101b060048036036101ab9190810190610ad3565b6106b1565b6040516101bd9190610cf0565b60405180910390f35b60006001600083815260200190815260200160002060030160009054906101000a900460ff169050919050565b806001600084815260200190815260200160002060030160006101000a81548160ff021916908360ff1602179055505050565b61022e6108fd565b6000600160008481526020019081526020016000209050806080604051908101604052908160008201548152602001600182018054600181600116156101000203166002900480601f0160208091040260200160405190810160405280929190818152602001828054600181600116156101000203166002900480156102f55780601f106102ca576101008083540402835291602001916102f5565b820191906000526020600020905b8154815290600101906020018083116102d857829003601f168201915b50505050508152602001600282018054600181600116156101000203166002900480601f0160208091040260200160405190810160405280929190818152602001828054600181600116156101000203166002900480156103975780601f1061036c57610100808354040283529160200191610397565b820191906000526020600020905b81548152906001019060200180831161037a57829003601f168201915b505050505081526020016003820160009054906101000a900460ff1660ff1660ff1681525050915050919050565b8260016000858152602001908152602001600020600001819055508160016000858152602001908152602001600020600101908051906020019061040a929190610929565b5080600160008581526020019081526020016000206002019080519060200190610435929190610929565b50600180600085815260200190815260200160002060030160006101000a81548160ff021916908360ff1602179055506002600160008581526020019081526020016000209080600181540180825580915050906001820390600052602060002090600402016000909192909190915060008201548160000155600182018160010190805460018160011615610100020316600290046104d69291906109a9565b50600282018160020190805460018160011615610100020316600290046104fe9291906109a9565b506003820160009054906101000a900460ff168160030160006101000a81548160ff021916908360ff160217905550505050505050565b60028181548110151561054457fe5b9060005260206000209060040201600091509050806000015490806001018054600181600116156101000203166002900480601f0160208091040260200160405190810160405280929190818152602001828054600181600116156101000203166002900480156105f65780601f106105cb576101008083540402835291602001916105f6565b820191906000526020600020905b8154815290600101906020018083116105d957829003601f168201915b505050505090806002018054600181600116156101000203166002900480601f0160208091040260200160405190810160405280929190818152602001828054600181600116156101000203166002900480156106945780601f1061066957610100808354040283529160200191610694565b820191906000526020600020905b81548152906001019060200180831161067757829003601f168201915b5050505050908060030160009054906101000a900460ff16905084565b6000806000905060008090505b6002805490508110156108f257836040516020018082805190602001908083835b60208310151561070457805182526020820191506020810190506020830392506106df565b6001836020036101000a038019825116818451168082178552505050505050905001915050604051602081830303815290604052805190602001206001600083815260200190815260200160002060020160405160200180828054600181600116156101000203166002900480156107b35780601f106107915761010080835404028352918201916107b3565b820191906000526020600020905b81548152906001019060200180831161079f575b5050915050604051602081830303815290604052805190602001201480156108db5750846040516020018082805190602001908083835b60208310151561080f57805182526020820191506020810190506020830392506107ea565b6001836020036101000a038019825116818451168082178552505050505050905001915050604051602081830303815290604052805190602001206001600083815260200190815260200160002060010160405160200180828054600181600116156101000203166002900480156108be5780601f1061089c5761010080835404028352918201916108be565b820191906000526020600020905b8154815290600101906020018083116108aa575b505091505060405160208183030381529060405280519060200120145b156108e557600191505b80806001019150506106be565b508091505092915050565b608060405190810160405280600081526020016060815260200160608152602001600060ff1681525090565b828054600181600116156101000203166002900490600052602060002090601f016020900481019282601f1061096a57805160ff1916838001178555610998565b82800160010185558215610998579182015b8281111561099757825182559160200191906001019061097c565b5b5090506109a59190610a30565b5090565b828054600181600116156101000203166002900490600052602060002090601f016020900481019282601f106109e25780548555610a1f565b82800160010185558215610a1f57600052602060002091601f016020900482015b82811115610a1e578254825591600101919060010190610a03565b5b509050610a2c9190610a30565b5090565b610a5291905b80821115610a4e576000816000905550600101610a36565b5090565b90565b600082601f8301121515610a6857600080fd5b8135610a7b610a7682610dc8565b610d9b565b91508082526020830160208301858383011115610a9757600080fd5b610aa2838284610e39565b50505092915050565b6000610ab78235610e22565b905092915050565b6000610acb8235610e2c565b905092915050565b60008060408385031215610ae657600080fd5b600083013567ffffffffffffffff811115610b0057600080fd5b610b0c85828601610a55565b925050602083013567ffffffffffffffff811115610b2957600080fd5b610b3585828601610a55565b9150509250929050565b600060208284031215610b5157600080fd5b6000610b5f84828501610aab565b91505092915050565b600080600060608486031215610b7d57600080fd5b6000610b8b86828701610aab565b935050602084013567ffffffffffffffff811115610ba857600080fd5b610bb486828701610a55565b925050604084013567ffffffffffffffff811115610bd157600080fd5b610bdd86828701610a55565b9150509250925092565b60008060408385031215610bfa57600080fd5b6000610c0885828601610aab565b9250506020610c1985828601610abf565b9150509250929050565b610c2c81610dff565b82525050565b6000610c3d82610df4565b808452610c51816020860160208601610e48565b610c5a81610e7b565b602085010191505092915050565b6000608083016000830151610c806000860182610cd2565b5060208301518482036020860152610c988282610c32565b91505060408301518482036040860152610cb28282610c32565b9150506060830151610cc76060860182610ce1565b508091505092915050565b610cdb81610e0b565b82525050565b610cea81610e15565b82525050565b6000602082019050610d056000830184610c23565b92915050565b60006020820190508181036000830152610d258184610c68565b905092915050565b6000608082019050610d426000830187610cd2565b8181036020830152610d548186610c32565b90508181036040830152610d688185610c32565b9050610d776060830184610ce1565b95945050505050565b6000602082019050610d956000830184610ce1565b92915050565b6000604051905081810181811067ffffffffffffffff82111715610dbe57600080fd5b8060405250919050565b600067ffffffffffffffff821115610ddf57600080fd5b601f19601f8301169050602081019050919050565b600081519050919050565b60008115159050919050565b6000819050919050565b600060ff82169050919050565b6000819050919050565b600060ff82169050919050565b82818337600083830152505050565b60005b83811015610e66578082015181840152602081019050610e4b565b83811115610e75576000848401525b50505050565b6000601f19601f830116905091905056fea265627a7a7230582051bf9be9504a5d33e52cd79c42bcf0eadfdb4526bcdb78c41d3d3df4335aa6246c6578706572696d656e74616cf50037",
  "source": "pragma solidity >=0.4.21 <0.6.0;\npragma experimental ABIEncoderV2;\ncontract MediaContract {\n    \n    struct MediaData{\n        uint256 id;\n        string Name;\n        string CheckSum;\n        uint8 status; //Pending 2 , Failed 0, Trusted 1\n    }\n    uint128[] itemIds;\n    mapping (uint256 => MediaData) MediaDataList;\n    MediaData[] public MediaDataArray;\n\n\n    function newMedia(uint256 _id, string memory _Name, string memory _CheckSum) public {\n    // In a mapping, all elements are defined. They're just empty by default\n    // So, just setting the id will create a new user;\n        MediaDataList[_id].id = _id;\n        MediaDataList[_id].Name = _Name;\n        MediaDataList[_id].CheckSum = _CheckSum;\n        MediaDataList[_id].status = 1;\n\n        MediaDataArray.push(MediaDataList[_id]);\n    }   \n\n    function getMediaStatus(uint256 _id) public view returns ( uint8 ) {\n        return MediaDataList[_id].status;\n    }\n    function getMediaInfo(uint256 _id) public view returns (MediaData memory) {\n        //return ( MediaDataList[_id].id, MediaDataList[_id].Name, MediaDataList[_id].CheckSum, MediaDataList[_id].status );\n        MediaData storage b1 = MediaDataList[_id];\n        return b1;\n    }\n    function updateStatus(uint _id, uint8 _status) public {\n        MediaDataList[_id].status = _status;\n    }\n    function CheckMediaSum(string memory _name,string memory _checksum) public view returns (bool) {\n        //return ( MediaDataList[_id].id, MediaDataList[_id].Name, MediaDataList[_id].CheckSum, MediaDataList[_id].status );\n        bool checksum_status = false;\n        for(uint size = 0; size < MediaDataArray.length; size ++){\n            if(keccak256(abi.encodePacked(MediaDataList[size].CheckSum)) == keccak256(abi.encodePacked(_checksum)) && keccak256(abi.encodePacked(MediaDataList[size].Name)) == keccak256(abi.encodePacked(_name))){\n                checksum_status = true;\n            }\n        }\n        return checksum_status;\n    }\n}",
  "sourcePath": "/Users/admin/Documents/Works/rentalsignage/contracts/MediaContract.sol",
  "compiler": {
    "name": "solc",
    "version": "0.5.0+commit.1d4f565a.Emscripten.clang"
  },
  "schemaVersion": "3.0.2",
  "updatedAt": "2019-03-22T05:17:41.099Z",
  "devdoc": {
    "methods": {}
  },
  "userdoc": {
    "methods": {}
  }
}