{
  "contractName": "Media",
  "abi": [
    {
      "constant": false,
      "inputs": [
        {
          "name": "_id",
          "type": "uint256"
        },
        {
          "name": "_Name",
          "type": "string"
        },
        {
          "name": "_CheckSum",
          "type": "string"
        }
      ],
      "name": "newMedia",
      "outputs": [],
      "payable": false,
      "stateMutability": "nonpayable",
      "type": "function",
      "signature": "0xa9d51d19"
    },
    {
      "constant": true,
      "inputs": [
        {
          "name": "_id",
          "type": "uint256"
        }
      ],
      "name": "getMediaStatus",
      "outputs": [
        {
          "name": "",
          "type": "uint8"
        }
      ],
      "payable": false,
      "stateMutability": "view",
      "type": "function",
      "signature": "0x12303da6"
    },
    {
      "constant": true,
      "inputs": [
        {
          "name": "_id",
          "type": "uint256"
        }
      ],
      "name": "getMediaInfo",
      "outputs": [
        {
          "components": [
            {
              "name": "id",
              "type": "uint256"
            },
            {
              "name": "Name",
              "type": "string"
            },
            {
              "name": "CheckSum",
              "type": "string"
            },
            {
              "name": "status",
              "type": "uint8"
            }
          ],
          "name": "",
          "type": "tuple"
        }
      ],
      "payable": false,
      "stateMutability": "view",
      "type": "function",
      "signature": "0xa1bffc20"
    },
    {
      "constant": false,
      "inputs": [
        {
          "name": "_id",
          "type": "uint256"
        }
      ],
      "name": "updateStatus",
      "outputs": [],
      "payable": false,
      "stateMutability": "nonpayable",
      "type": "function",
      "signature": "0xd61e7201"
    }
  ],
  "bytecode": "0x608060405234801561001057600080fd5b506107c7806100206000396000f3fe608060405260043610610062576000357c0100000000000000000000000000000000000000000000000000000000900463ffffffff16806312303da614610067578063a1bffc20146100a4578063a9d51d19146100e1578063d61e72011461010a575b600080fd5b34801561007357600080fd5b5061008e60048036036100899190810190610512565b610133565b60405161009b919061069a565b60405180910390f35b3480156100b057600080fd5b506100cb60048036036100c69190810190610512565b610160565b6040516100d89190610678565b60405180910390f35b3480156100ed57600080fd5b506101086004803603610103919081019061053b565b6102ff565b005b34801561011657600080fd5b50610131600480360361012c9190810190610512565b6103a4565b005b60006001600083815260200190815260200160002060030160009054906101000a900460ff169050919050565b6101686103d7565b6000600160008481526020019081526020016000209050806080604051908101604052908160008201548152602001600182018054600181600116156101000203166002900480601f01602080910402602001604051908101604052809291908181526020018280546001816001161561010002031660029004801561022f5780601f106102045761010080835404028352916020019161022f565b820191906000526020600020905b81548152906001019060200180831161021257829003601f168201915b50505050508152602001600282018054600181600116156101000203166002900480601f0160208091040260200160405190810160405280929190818152602001828054600181600116156101000203166002900480156102d15780601f106102a6576101008083540402835291602001916102d1565b820191906000526020600020905b8154815290600101906020018083116102b457829003601f168201915b505050505081526020016003820160009054906101000a900460ff1660ff1660ff1681525050915050919050565b82600160008581526020019081526020016000206000018190555081600160008581526020019081526020016000206001019080519060200190610344929190610403565b508060016000858152602001908152602001600020600201908051906020019061036f929190610403565b50600180600085815260200190815260200160002060030160006101000a81548160ff021916908360ff160217905550505050565b60006001600083815260200190815260200160002060030160006101000a81548160ff021916908360ff16021790555050565b608060405190810160405280600081526020016060815260200160608152602001600060ff1681525090565b828054600181600116156101000203166002900490600052602060002090601f016020900481019282601f1061044457805160ff1916838001178555610472565b82800160010185558215610472579182015b82811115610471578251825591602001919060010190610456565b5b50905061047f9190610483565b5090565b6104a591905b808211156104a1576000816000905550600101610489565b5090565b90565b600082601f83011215156104bb57600080fd5b81356104ce6104c9826106e2565b6106b5565b915080825260208301602083018583830111156104ea57600080fd5b6104f583828461073a565b50505092915050565b600061050a8235610730565b905092915050565b60006020828403121561052457600080fd5b6000610532848285016104fe565b91505092915050565b60008060006060848603121561055057600080fd5b600061055e868287016104fe565b935050602084013567ffffffffffffffff81111561057b57600080fd5b610587868287016104a8565b925050604084013567ffffffffffffffff8111156105a457600080fd5b6105b0868287016104a8565b9150509250925092565b60006105c58261070e565b8084526105d9816020860160208601610749565b6105e28161077c565b602085010191505092915050565b6000608083016000830151610608600086018261065a565b506020830151848203602086015261062082826105ba565b9150506040830151848203604086015261063a82826105ba565b915050606083015161064f6060860182610669565b508091505092915050565b61066381610719565b82525050565b61067281610723565b82525050565b6000602082019050818103600083015261069281846105f0565b905092915050565b60006020820190506106af6000830184610669565b92915050565b6000604051905081810181811067ffffffffffffffff821117156106d857600080fd5b8060405250919050565b600067ffffffffffffffff8211156106f957600080fd5b601f19601f8301169050602081019050919050565b600081519050919050565b6000819050919050565b600060ff82169050919050565b6000819050919050565b82818337600083830152505050565b60005b8381101561076757808201518184015260208101905061074c565b83811115610776576000848401525b50505050565b6000601f19601f830116905091905056fea265627a7a7230582093cf5b56c121b7168d28c0a35523a9fb5e466fef40a6c8d4abdee876d02b84126c6578706572696d656e74616cf50037",
  "source": "pragma solidity >=0.4.21 <0.6.0;\npragma experimental ABIEncoderV2;\ncontract Media {\n    \n    struct MediaData{\n        uint256 id;\n        string Name;\n        string CheckSum;\n        uint8 status; //Pending 2 , Failed 0, Trusted 1\n    }\n    uint128[] itemIds;\n    mapping (uint256 => MediaData) MediaDataList;\n\n    function newMedia(uint256 _id, string memory _Name, string memory _CheckSum) public {\n    // In a mapping, all elements are defined. They're just empty by default\n    // So, just setting the id will create a new user;\n        MediaDataList[_id].id = _id;\n        MediaDataList[_id].Name = _Name;\n        MediaDataList[_id].CheckSum = _CheckSum;\n        MediaDataList[_id].status = 1;\n    }   \n    function getMediaStatus(uint256 _id) public view returns ( uint8 ) {\n        return MediaDataList[_id].status;\n    }\n    function getMediaInfo(uint256 _id) public view returns (MediaData memory) {\n        //return ( MediaDataList[_id].id, MediaDataList[_id].Name, MediaDataList[_id].CheckSum, MediaDataList[_id].status );\n        MediaData storage b1 = MediaDataList[_id];\n        return b1;\n    }\n    function updateStatus(uint _id) public {\n        MediaDataList[_id].status = 0;\n    }\n\n}",
  "sourcePath": "/Users/admin/Documents/Works/rentalsignage/contracts/Media.sol",
  "compiler": {
    "name": "solc",
    "version": "0.5.0+commit.1d4f565a.Emscripten.clang"
  },
  "schemaVersion": "3.0.2",
  "updatedAt": "2019-03-15T07:41:34.520Z",
  "devdoc": {
    "methods": {}
  },
  "userdoc": {
    "methods": {}
  }
}