{
  "contractName": "PlaylistContract",
  "abi": [
    {
      "constant": true,
      "inputs": [],
      "name": "count",
      "outputs": [
        {
          "name": "",
          "type": "uint256"
        }
      ],
      "payable": false,
      "stateMutability": "view",
      "type": "function",
      "signature": "0x06661abd"
    },
    {
      "constant": true,
      "inputs": [
        {
          "name": "",
          "type": "uint256"
        }
      ],
      "name": "PlaylistStores",
      "outputs": [
        {
          "name": "playlistId",
          "type": "uint256"
        },
        {
          "name": "playlistname",
          "type": "string"
        },
        {
          "name": "Media_Check",
          "type": "bool"
        }
      ],
      "payable": false,
      "stateMutability": "view",
      "type": "function",
      "signature": "0x461a3851"
    },
    {
      "constant": true,
      "inputs": [
        {
          "name": "",
          "type": "uint256"
        }
      ],
      "name": "PlaylistArray",
      "outputs": [
        {
          "name": "playlistId",
          "type": "uint256"
        },
        {
          "name": "playlistname",
          "type": "string"
        },
        {
          "name": "Media_Check",
          "type": "bool"
        }
      ],
      "payable": false,
      "stateMutability": "view",
      "type": "function",
      "signature": "0x5f58d27f"
    },
    {
      "anonymous": false,
      "inputs": [
        {
          "indexed": true,
          "name": "value1",
          "type": "uint256"
        }
      ],
      "name": "playlist_event",
      "type": "event",
      "signature": "0x676412410d5361fe394106bd6847c1ad786f0ff7e7877e2ba7636985fbac1f56"
    },
    {
      "constant": false,
      "inputs": [],
      "name": "test_playlist",
      "outputs": [],
      "payable": false,
      "stateMutability": "nonpayable",
      "type": "function",
      "signature": "0xa30a2a28"
    },
    {
      "constant": false,
      "inputs": [
        {
          "name": "MediaAddress",
          "type": "address"
        }
      ],
      "name": "getMediaContract",
      "outputs": [],
      "payable": false,
      "stateMutability": "nonpayable",
      "type": "function",
      "signature": "0x49ea3e02"
    },
    {
      "constant": false,
      "inputs": [
        {
          "name": "_name",
          "type": "string"
        },
        {
          "name": "_mediaName",
          "type": "string[]"
        },
        {
          "name": "_checksum",
          "type": "string[]"
        }
      ],
      "name": "addplaylist",
      "outputs": [],
      "payable": false,
      "stateMutability": "nonpayable",
      "type": "function",
      "signature": "0xe906bce0"
    },
    {
      "constant": true,
      "inputs": [
        {
          "name": "_playlistId",
          "type": "uint256"
        }
      ],
      "name": "getplaylist",
      "outputs": [
        {
          "components": [
            {
              "name": "playlistId",
              "type": "uint256"
            },
            {
              "name": "playlistname",
              "type": "string"
            },
            {
              "name": "Mediafile_name",
              "type": "string[]"
            },
            {
              "name": "Mediafile_check",
              "type": "string[]"
            },
            {
              "name": "Media_Check",
              "type": "bool"
            }
          ],
          "name": "",
          "type": "tuple"
        }
      ],
      "payable": false,
      "stateMutability": "view",
      "type": "function",
      "signature": "0xf6ffeac6"
    },
    {
      "constant": true,
      "inputs": [],
      "name": "getplaylistlength",
      "outputs": [
        {
          "name": "",
          "type": "uint256"
        }
      ],
      "payable": false,
      "stateMutability": "view",
      "type": "function",
      "signature": "0x26200bfd"
    },
    {
      "constant": true,
      "inputs": [
        {
          "name": "PlaylistId",
          "type": "uint256"
        },
        {
          "name": "_Name",
          "type": "string[]"
        },
        {
          "name": "_checksum",
          "type": "string[]"
        }
      ],
      "name": "checkMeida",
      "outputs": [
        {
          "name": "",
          "type": "bool"
        }
      ],
      "payable": false,
      "stateMutability": "view",
      "type": "function",
      "signature": "0x0f00f838"
    },
    {
      "constant": true,
      "inputs": [
        {
          "name": "_playlistid",
          "type": "uint256"
        }
      ],
      "name": "getplaylistStatus",
      "outputs": [
        {
          "name": "",
          "type": "bool"
        }
      ],
      "payable": false,
      "stateMutability": "view",
      "type": "function",
      "signature": "0x42908157"
    }
  ],
  "bytecode": "0x608060405234801561001057600080fd5b506114d3806100206000396000f3fe6080604052600436106100a4576000357c0100000000000000000000000000000000000000000000000000000000900463ffffffff16806306661abd146100a95780630f00f838146100d457806326200bfd14610111578063429081571461013c578063461a38511461017957806349ea3e02146101b85780635f58d27f146101e1578063a30a2a2814610220578063e906bce014610237578063f6ffeac614610260575b600080fd5b3480156100b557600080fd5b506100be61029d565b6040516100cb91906112b2565b60405180910390f35b3480156100e057600080fd5b506100fb60048036036100f69190810190611079565b6102a3565b604051610108919061123e565b60405180910390f35b34801561011d57600080fd5b5061012661041d565b60405161013391906112b2565b60405180910390f35b34801561014857600080fd5b50610163600480360361015e9190810190611050565b61042a565b604051610170919061123e565b60405180910390f35b34801561018557600080fd5b506101a0600480360361019b9190810190611050565b610457565b6040516101af939291906112cd565b60405180910390f35b3480156101c457600080fd5b506101df60048036036101da9190810190610f67565b610526565b005b3480156101ed57600080fd5b5061020860048036036102039190810190611050565b610569565b604051610217939291906112cd565b60405180910390f35b34801561022c57600080fd5b50610235610647565b005b34801561024357600080fd5b5061025e60048036036102599190810190610fb9565b610649565b005b34801561026c57600080fd5b5061028760048036036102829190810190611050565b61081a565b6040516102949190611290565b60405180910390f35b60045481565b60008082519050600084519050600080905081831415156102c957809350505050610416565b60008090505b600560008981526020019081526020016000206003018054905081101561040e576000809054906101000a900473ffffffffffffffffffffffffffffffffffffffff1673ffffffffffffffffffffffffffffffffffffffff1663d4c76e75888381518110151561033b57fe5b90602001906020020151888481518110151561035357fe5b906020019060200201516040518363ffffffff167c0100000000000000000000000000000000000000000000000000000000028152600401610396929190611259565b60206040518083038186803b1580156103ae57600080fd5b505afa1580156103c2573d6000803e3d6000fd5b505050506040513d601f19601f820116820180604052506103e69190810190610f90565b91506000151582151514156104015781945050505050610416565b80806001019150506102cf565b508093505050505b9392505050565b6000600680549050905090565b60006005600083815260200190815260200160002060040160009054906101000a900460ff169050919050565b6005602052806000526040600020600091509050806000015490806001018054600181600116156101000203166002900480601f0160208091040260200160405190810160405280929190818152602001828054600181600116156101000203166002900480156105095780601f106104de57610100808354040283529160200191610509565b820191906000526020600020905b8154815290600101906020018083116104ec57829003601f168201915b5050505050908060040160009054906101000a900460ff16905083565b806000806101000a81548173ffffffffffffffffffffffffffffffffffffffff021916908373ffffffffffffffffffffffffffffffffffffffff16021790555050565b60068181548110151561057857fe5b9060005260206000209060050201600091509050806000015490806001018054600181600116156101000203166002900480601f01602080910402602001604051908101604052809291908181526020018280546001816001161561010002031660029004801561062a5780601f106105ff5761010080835404028352916020019161062a565b820191906000526020600020905b81548152906001019060200180831161060d57829003601f168201915b5050505050908060040160009054906101000a900460ff16905083565b565b60045460056000600454815260200190815260200160002060000181905550826005600060045481526020019081526020016000206001019080519060200190610694929190610ae7565b508160056000600454815260200190815260200160002060020190805190602001906106c1929190610b67565b508060056000600454815260200190815260200160002060030190805190602001906106ee929190610b67565b5060006106fe60045484846102a3565b90508060056000600454815260200190815260200160002060040160006101000a81548160ff02191690831515021790555060066005600060045481526020019081526020016000209080600181540180825580915050906001820390600052602060002090600502016000909192909190915060008201548160000155600182018160010190805460018160011615610100020316600290046107a3929190610bc7565b5060028201816002019080546107ba929190610c4e565b5060038201816003019080546107d1929190610c4e565b506004820160009054906101000a900460ff168160040160006101000a81548160ff02191690831515021790555050505060046000815480929190600101919050555050505050565b610822610cbe565b60006005600084815260200190815260200160002090508060a0604051908101604052908160008201548152602001600182018054600181600116156101000203166002900480601f0160208091040260200160405190810160405280929190818152602001828054600181600116156101000203166002900480156108e95780601f106108be576101008083540402835291602001916108e9565b820191906000526020600020905b8154815290600101906020018083116108cc57829003601f168201915b5050505050815260200160028201805480602002602001604051908101604052809291908181526020016000905b828210156109d3578382906000526020600020018054600181600116156101000203166002900480601f0160208091040260200160405190810160405280929190818152602001828054600181600116156101000203166002900480156109bf5780601f10610994576101008083540402835291602001916109bf565b820191906000526020600020905b8154815290600101906020018083116109a257829003601f168201915b505050505081526020019060010190610917565b50505050815260200160038201805480602002602001604051908101604052809291908181526020016000905b82821015610abc578382906000526020600020018054600181600116156101000203166002900480601f016020809104026020016040519081016040528092919081815260200182805460018160011615610100020316600290048015610aa85780601f10610a7d57610100808354040283529160200191610aa8565b820191906000526020600020905b815481529060010190602001808311610a8b57829003601f168201915b505050505081526020019060010190610a00565b5050505081526020016004820160009054906101000a900460ff161515151581525050915050919050565b828054600181600116156101000203166002900490600052602060002090601f016020900481019282601f10610b2857805160ff1916838001178555610b56565b82800160010185558215610b56579182015b82811115610b55578251825591602001919060010190610b3a565b5b509050610b639190610cf0565b5090565b828054828255906000526020600020908101928215610bb6579160200282015b82811115610bb5578251829080519060200190610ba5929190610d15565b5091602001919060010190610b87565b5b509050610bc39190610d95565b5090565b828054600181600116156101000203166002900490600052602060002090601f016020900481019282601f10610c005780548555610c3d565b82800160010185558215610c3d57600052602060002091601f016020900482015b82811115610c3c578254825591600101919060010190610c21565b5b509050610c4a9190610cf0565b5090565b828054828255906000526020600020908101928215610cad5760005260206000209182015b82811115610cac5782829080546001816001161561010002031660029004610c9c929190610bc7565b5091600101919060010190610c73565b5b509050610cba9190610d95565b5090565b60a060405190810160405280600081526020016060815260200160608152602001606081526020016000151581525090565b610d1291905b80821115610d0e576000816000905550600101610cf6565b5090565b90565b828054600181600116156101000203166002900490600052602060002090601f016020900481019282601f10610d5657805160ff1916838001178555610d84565b82800160010185558215610d84579182015b82811115610d83578251825591602001919060010190610d68565b5b509050610d919190610cf0565b5090565b610dbe91905b80821115610dba5760008181610db19190610dc1565b50600101610d9b565b5090565b90565b50805460018160011615610100020316600290046000825580601f10610de75750610e06565b601f016020900490600052602060002090810190610e059190610cf0565b5b50565b6000610e15823561141e565b905092915050565b600082601f8301121515610e3057600080fd5b8135610e43610e3e82611338565b61130b565b9150818183526020840193506020810190508360005b83811015610e895781358601610e6f8882610ea7565b845260208401935060208301925050600181019050610e59565b5050505092915050565b6000610e9f8251611430565b905092915050565b600082601f8301121515610eba57600080fd5b8135610ecd610ec882611360565b61130b565b91508082526020830160208301858383011115610ee957600080fd5b610ef4838284611446565b50505092915050565b600082601f8301121515610f1057600080fd5b8135610f23610f1e8261138c565b61130b565b91508082526020830160208301858383011115610f3f57600080fd5b610f4a838284611446565b50505092915050565b6000610f5f823561143c565b905092915050565b600060208284031215610f7957600080fd5b6000610f8784828501610e09565b91505092915050565b600060208284031215610fa257600080fd5b6000610fb084828501610e93565b91505092915050565b600080600060608486031215610fce57600080fd5b600084013567ffffffffffffffff811115610fe857600080fd5b610ff486828701610efd565b935050602084013567ffffffffffffffff81111561101157600080fd5b61101d86828701610e1d565b925050604084013567ffffffffffffffff81111561103a57600080fd5b61104686828701610e1d565b9150509250925092565b60006020828403121561106257600080fd5b600061107084828501610f53565b91505092915050565b60008060006060848603121561108e57600080fd5b600061109c86828701610f53565b935050602084013567ffffffffffffffff8111156110b957600080fd5b6110c586828701610e1d565b925050604084013567ffffffffffffffff8111156110e257600080fd5b6110ee86828701610e1d565b9150509250925092565b6000611103826113c5565b8084526020840193508360208202850161111c856113b8565b60005b84811015611155578383038852611137838351611175565b9250611142826113db565b915060208801975060018101905061111f565b508196508694505050505092915050565b61116f816113e8565b82525050565b6000611180826113d0565b808452611194816020860160208601611455565b61119d81611488565b602085010191505092915050565b600060a0830160008301516111c3600086018261122f565b50602083015184820360208601526111db8282611175565b915050604083015184820360408601526111f582826110f8565b9150506060830151848203606086015261120f82826110f8565b91505060808301516112246080860182611166565b508091505092915050565b61123881611414565b82525050565b60006020820190506112536000830184611166565b92915050565b600060408201905081810360008301526112738185611175565b905081810360208301526112878184611175565b90509392505050565b600060208201905081810360008301526112aa81846111ab565b905092915050565b60006020820190506112c7600083018461122f565b92915050565b60006060820190506112e2600083018661122f565b81810360208301526112f48185611175565b90506113036040830184611166565b949350505050565b6000604051905081810181811067ffffffffffffffff8211171561132e57600080fd5b8060405250919050565b600067ffffffffffffffff82111561134f57600080fd5b602082029050602081019050919050565b600067ffffffffffffffff82111561137757600080fd5b601f19601f8301169050602081019050919050565b600067ffffffffffffffff8211156113a357600080fd5b601f19601f8301169050602081019050919050565b6000602082019050919050565b600081519050919050565b600081519050919050565b6000602082019050919050565b60008115159050919050565b600073ffffffffffffffffffffffffffffffffffffffff82169050919050565b6000819050919050565b6000611429826113f4565b9050919050565b60008115159050919050565b6000819050919050565b82818337600083830152505050565b60005b83811015611473578082015181840152602081019050611458565b83811115611482576000848401525b50505050565b6000601f19601f830116905091905056fea265627a7a7230582003ea601141b5c597c6b88c3a69f62bb29ac592c96119b95c6b5f5a5aa0967f1f6c6578706572696d656e74616cf50037",
  "source": "pragma solidity >=0.4.21 <0.6.0;\npragma experimental ABIEncoderV2;\nimport './MediaContract.sol';\ncontract PlaylistContract {\n    MediaContract mediacontract;\n    event playlist_event(uint256 indexed value1);\n    //Meida Information \n    string[] MediaContent_Local ;\n    string meida_name_Local;\n    string meida_checksum_Local;\n    \n    //Playlist uint \n    uint public count;\n    //Map Playlist \n    mapping(uint256 => Playlist) public PlaylistStores;\n    Playlist[] public PlaylistArray;\n\n    struct Playlist{\n        uint playlistId;  \n        string playlistname;    \n        string[] Mediafile_name;\n        string[] Mediafile_check;\n        bool Media_Check;\n    }\n\n    function test_playlist() public {\n        //value_test processing\n        // emit test_value(value_test); // log the current value\n    }\n    // Must do \n    function getMediaContract(address MediaAddress) public {\n        mediacontract = MediaContract(MediaAddress);\n    }\n    function addplaylist(string memory _name,string[] memory _mediaName,string[] memory _checksum ) public{\n        \n        PlaylistStores[count].playlistId = count; \n        PlaylistStores[count].playlistname = _name; \n        PlaylistStores[count].Mediafile_name = _mediaName;\n        PlaylistStores[count].Mediafile_check = _checksum;\n        //Check Media File\n        bool checkStatus = checkMeida(count, _mediaName, _checksum);\n        PlaylistStores[count].Media_Check = checkStatus;\n\n        PlaylistArray.push(PlaylistStores[count]);\n        count ++;\n    }\n    //Get Media All Information\n    function getplaylist(uint _playlistId) public view returns(Playlist memory){\n        Playlist storage b1 = PlaylistStores[_playlistId];\n        return b1;\n    }\n    //Get Media All Information\n    function getplaylistlength() public view returns(uint){\n        return PlaylistArray.length;\n    }\n    \n    function checkMeida(uint PlaylistId, string[] memory _Name, string[] memory _checksum) public view returns(bool){\n       \n        //Need to Check Media Content \n        uint checksum_Size = _checksum.length;\n        uint Name_Size = _Name.length;\n        //all _checksum length \n        bool checksum_status = false;\n        //if Get Size and Name is not identical\n        if(checksum_Size != Name_Size){\n            return checksum_status;\n        }\n        //Call MediaContract to check CheckSum and Name\n        for(uint size = 0;size < PlaylistStores[PlaylistId].Mediafile_check.length ; size ++){\n            checksum_status = mediacontract.CheckMediaSum(_Name[size], _checksum[size]);\n            if(checksum_status==false){\n                return checksum_status;\n            }\n        }  \n        return checksum_status;\n    }\n    //Get the Playlist of MediaStatus\n    function getplaylistStatus(uint _playlistid) public view returns(bool){\n        return PlaylistStores[_playlistid].Media_Check;\n    }\n    \n    \n    \n    //Get Media Size from Media Contract\n    // function getMediaLength() public view returns (uint){\n    //     uint arrayLength = mediacontract.getMedialength();\n    //     return arrayLength;\n    // }\n    \n    //Get Media All Information\n    // function getMediaInfo(uint size) public view returns(string memory,string memory){\n    //     string memory a;\n    //     string memory b;\n    //     (a,b)= mediacontract.getMediaInfoById_data(size);\n        \n    //     return (a,b);\n        \n    // }\n\n    \n\n    \n}",
  "sourcePath": "/Users/admin/Documents/Works/rentalsignage/contracts/PlaylistContract.sol",
  "compiler": {
    "name": "solc",
    "version": "0.5.0+commit.1d4f565a.Emscripten.clang"
  },
  "schemaVersion": "3.0.2",
  "updatedAt": "2019-03-22T05:17:41.105Z",
  "devdoc": {
    "methods": {}
  },
  "userdoc": {
    "methods": {}
  }
}