{
  "contractName": "RentalContract",
  "abi": [
    {
      "constant": true,
      "inputs": [
        {
          "name": "",
          "type": "uint256"
        }
      ],
      "name": "RentalStores",
      "outputs": [
        {
          "name": "RentalId",
          "type": "uint256"
        },
        {
          "name": "buyer",
          "type": "address"
        },
        {
          "name": "player",
          "type": "address"
        },
        {
          "name": "system",
          "type": "address"
        },
        {
          "name": "All_status",
          "type": "bool"
        },
        {
          "name": "refounded",
          "type": "bool"
        },
        {
          "name": "rental_status",
          "type": "uint8"
        },
        {
          "name": "cost",
          "type": "uint256"
        },
        {
          "name": "start_time",
          "type": "string"
        },
        {
          "name": "end_time",
          "type": "string"
        },
        {
          "name": "playlistid",
          "type": "uint256"
        },
        {
          "name": "Rentail_fee",
          "type": "uint256"
        }
      ],
      "payable": false,
      "stateMutability": "view",
      "type": "function",
      "signature": "0x6a542bfa"
    },
    {
      "constant": true,
      "inputs": [
        {
          "name": "",
          "type": "uint256"
        }
      ],
      "name": "RentalDataList",
      "outputs": [
        {
          "name": "RentalId",
          "type": "uint256"
        },
        {
          "name": "buyer",
          "type": "address"
        },
        {
          "name": "player",
          "type": "address"
        },
        {
          "name": "system",
          "type": "address"
        },
        {
          "name": "All_status",
          "type": "bool"
        },
        {
          "name": "refounded",
          "type": "bool"
        },
        {
          "name": "rental_status",
          "type": "uint8"
        },
        {
          "name": "cost",
          "type": "uint256"
        },
        {
          "name": "start_time",
          "type": "string"
        },
        {
          "name": "end_time",
          "type": "string"
        },
        {
          "name": "playlistid",
          "type": "uint256"
        },
        {
          "name": "Rentail_fee",
          "type": "uint256"
        }
      ],
      "payable": false,
      "stateMutability": "view",
      "type": "function",
      "signature": "0x7da1f4a1"
    },
    {
      "anonymous": false,
      "inputs": [
        {
          "indexed": false,
          "name": "id",
          "type": "uint256"
        },
        {
          "indexed": false,
          "name": "All_status",
          "type": "bool"
        },
        {
          "indexed": false,
          "name": "rental_status",
          "type": "uint8"
        }
      ],
      "name": "RentalTask",
      "type": "event",
      "signature": "0x9150def77a74f13766541a58f83b5eaef24b3c77d9edb75a202a6bd7f37cc2e8"
    },
    {
      "constant": false,
      "inputs": [
        {
          "name": "playlistAddress",
          "type": "address"
        }
      ],
      "name": "AddPlaylist",
      "outputs": [],
      "payable": false,
      "stateMutability": "nonpayable",
      "type": "function",
      "signature": "0x95f8eea2"
    },
    {
      "constant": false,
      "inputs": [
        {
          "name": "_buyer",
          "type": "address"
        },
        {
          "name": "_player",
          "type": "address"
        },
        {
          "name": "_system",
          "type": "address"
        },
        {
          "name": "_playerStatus",
          "type": "bool"
        },
        {
          "name": "_cost",
          "type": "uint256"
        },
        {
          "name": "_startTime",
          "type": "string"
        },
        {
          "name": "_endTime",
          "type": "string"
        },
        {
          "name": "_playlistId",
          "type": "uint256"
        },
        {
          "name": "_rental_fee",
          "type": "uint256"
        }
      ],
      "name": "SaveRental",
      "outputs": [],
      "payable": false,
      "stateMutability": "nonpayable",
      "type": "function",
      "signature": "0x90d47916"
    },
    {
      "constant": true,
      "inputs": [
        {
          "name": "_playlistId",
          "type": "uint256"
        },
        {
          "name": "_buyer",
          "type": "address"
        },
        {
          "name": "playerStatus",
          "type": "bool"
        },
        {
          "name": "_rental_fee",
          "type": "uint256"
        }
      ],
      "name": "CheckStatus",
      "outputs": [
        {
          "name": "",
          "type": "bool"
        }
      ],
      "payable": false,
      "stateMutability": "view",
      "type": "function",
      "signature": "0x78b38a59"
    },
    {
      "constant": true,
      "inputs": [],
      "name": "getRentalLength",
      "outputs": [
        {
          "name": "",
          "type": "uint256"
        }
      ],
      "payable": false,
      "stateMutability": "view",
      "type": "function",
      "signature": "0x2da596ce"
    },
    {
      "constant": true,
      "inputs": [
        {
          "name": "_RentalId",
          "type": "uint256"
        }
      ],
      "name": "getRental",
      "outputs": [
        {
          "components": [
            {
              "name": "RentalId",
              "type": "uint256"
            },
            {
              "name": "buyer",
              "type": "address"
            },
            {
              "name": "player",
              "type": "address"
            },
            {
              "name": "system",
              "type": "address"
            },
            {
              "name": "All_status",
              "type": "bool"
            },
            {
              "name": "refounded",
              "type": "bool"
            },
            {
              "name": "rental_status",
              "type": "uint8"
            },
            {
              "name": "cost",
              "type": "uint256"
            },
            {
              "name": "start_time",
              "type": "string"
            },
            {
              "name": "end_time",
              "type": "string"
            },
            {
              "name": "playlistid",
              "type": "uint256"
            },
            {
              "name": "Rentail_fee",
              "type": "uint256"
            }
          ],
          "name": "",
          "type": "tuple"
        }
      ],
      "payable": false,
      "stateMutability": "view",
      "type": "function",
      "signature": "0x652bd29e"
    },
    {
      "constant": true,
      "inputs": [
        {
          "name": "_RentalId",
          "type": "uint256"
        }
      ],
      "name": "getRentalStatus",
      "outputs": [
        {
          "name": "",
          "type": "uint8"
        }
      ],
      "payable": false,
      "stateMutability": "view",
      "type": "function",
      "signature": "0xdd9c96db"
    },
    {
      "constant": false,
      "inputs": [
        {
          "name": "_RentalId",
          "type": "uint256"
        },
        {
          "name": "_Rental_Stauts",
          "type": "uint8"
        }
      ],
      "name": "updateRental",
      "outputs": [],
      "payable": false,
      "stateMutability": "nonpayable",
      "type": "function",
      "signature": "0xa9a04af3"
    }
  ],
  "bytecode": "0x608060405234801561001057600080fd5b506119c8806100206000396000f3fe608060405260043610610099576000357c0100000000000000000000000000000000000000000000000000000000900463ffffffff1680632da596ce1461009e578063652bd29e146100c95780636a542bfa1461010657806378b38a591461014e5780637da1f4a11461018b57806390d47916146101d357806395f8eea2146101fc578063a9a04af314610225578063dd9c96db1461024e575b600080fd5b3480156100aa57600080fd5b506100b361028b565b6040516100c0919061170c565b60405180910390f35b3480156100d557600080fd5b506100f060048036036100eb919081019061146f565b610298565b6040516100fd91906116ea565b60405180910390f35b34801561011257600080fd5b5061012d6004803603610128919081019061146f565b61059e565b6040516101459c9b9a99989796959493929190611727565b60405180910390f35b34801561015a57600080fd5b5061017560048036036101709190810190611498565b6107b5565b60405161018291906116b4565b60405180910390f35b34801561019757600080fd5b506101b260048036036101ad919081019061146f565b6108d4565b6040516101ca9c9b9a99989796959493929190611727565b60405180910390f35b3480156101df57600080fd5b506101fa60048036036101f59190810190611350565b610afa565b005b34801561020857600080fd5b50610223600480360361021e9190810190611327565b61101e565b005b34801561023157600080fd5b5061024c600480360361024791908101906114fb565b611061565b005b34801561025a57600080fd5b506102756004803603610270919081019061146f565b6110e3565b60405161028291906116cf565b60405180910390f35b6000600480549050905090565b6102a0611115565b6000600360008481526020019081526020016000209050806101806040519081016040529081600082015481526020016001820160009054906101000a900473ffffffffffffffffffffffffffffffffffffffff1673ffffffffffffffffffffffffffffffffffffffff1673ffffffffffffffffffffffffffffffffffffffff1681526020016002820160009054906101000a900473ffffffffffffffffffffffffffffffffffffffff1673ffffffffffffffffffffffffffffffffffffffff1673ffffffffffffffffffffffffffffffffffffffff1681526020016003820160009054906101000a900473ffffffffffffffffffffffffffffffffffffffff1673ffffffffffffffffffffffffffffffffffffffff1673ffffffffffffffffffffffffffffffffffffffff1681526020016003820160149054906101000a900460ff161515151581526020016003820160159054906101000a900460ff161515151581526020016003820160169054906101000a900460ff16600481111561042557fe5b600481111561043057fe5b815260200160048201548152602001600582018054600181600116156101000203166002900480601f0160208091040260200160405190810160405280929190818152602001828054600181600116156101000203166002900480156104d75780601f106104ac576101008083540402835291602001916104d7565b820191906000526020600020905b8154815290600101906020018083116104ba57829003601f168201915b50505050508152602001600682018054600181600116156101000203166002900480601f0160208091040260200160405190810160405280929190818152602001828054600181600116156101000203166002900480156105795780601f1061054e57610100808354040283529160200191610579565b820191906000526020600020905b81548152906001019060200180831161055c57829003601f168201915b5050505050815260200160078201548152602001600882015481525050915050919050565b60036020528060005260406000206000915090508060000154908060010160009054906101000a900473ffffffffffffffffffffffffffffffffffffffff16908060020160009054906101000a900473ffffffffffffffffffffffffffffffffffffffff16908060030160009054906101000a900473ffffffffffffffffffffffffffffffffffffffff16908060030160149054906101000a900460ff16908060030160159054906101000a900460ff16908060030160169054906101000a900460ff1690806004015490806005018054600181600116156101000203166002900480601f0160208091040260200160405190810160405280929190818152602001828054600181600116156101000203166002900480156107015780601f106106d657610100808354040283529160200191610701565b820191906000526020600020905b8154815290600101906020018083116106e457829003601f168201915b505050505090806006018054600181600116156101000203166002900480601f01602080910402602001604051908101604052809291908181526020018280546001816001161561010002031660029004801561079f5780601f106107745761010080835404028352916020019161079f565b820191906000526020600020905b81548152906001019060200180831161078257829003601f168201915b505050505090806007015490806008015490508c565b6000806000809054906101000a900473ffffffffffffffffffffffffffffffffffffffff1673ffffffffffffffffffffffffffffffffffffffff166342908157876040518263ffffffff167c010000000000000000000000000000000000000000000000000000000002815260040161082e919061170c565b60206040518083038186803b15801561084657600080fd5b505afa15801561085a573d6000803e3d6000fd5b505050506040513d601f19601f8201168201806040525061087e9190810190611446565b905060008573ffffffffffffffffffffffffffffffffffffffff16319050600085905060008090508380156108b257508583115b80156108bb5750815b156108c557600190505b80945050505050949350505050565b6004818154811015156108e357fe5b90600052602060002090600902016000915090508060000154908060010160009054906101000a900473ffffffffffffffffffffffffffffffffffffffff16908060020160009054906101000a900473ffffffffffffffffffffffffffffffffffffffff16908060030160009054906101000a900473ffffffffffffffffffffffffffffffffffffffff16908060030160149054906101000a900460ff16908060030160159054906101000a900460ff16908060030160169054906101000a900460ff1690806004015490806005018054600181600116156101000203166002900480601f016020809104026020016040519081016040528092919081815260200182805460018160011615610100020316600290048015610a465780601f10610a1b57610100808354040283529160200191610a46565b820191906000526020600020905b815481529060010190602001808311610a2957829003601f168201915b505050505090806006018054600181600116156101000203166002900480601f016020809104026020016040519081016040528092919081815260200182805460018160011615610100020316600290048015610ae45780601f10610ab957610100808354040283529160200191610ae4565b820191906000526020600020905b815481529060010190602001808311610ac757829003601f168201915b505050505090806007015490806008015490508c565b6000610b08838b89856107b5565b90506000600260006101000a81548160ff02191690836004811115610b2957fe5b0217905550600015158115151415610b5f5760028060006101000a81548160ff02191690836004811115610b5957fe5b02179055505b610b67611115565b6101806040519081016040528060055481526020018c73ffffffffffffffffffffffffffffffffffffffff1681526020018b73ffffffffffffffffffffffffffffffffffffffff1681526020018a73ffffffffffffffffffffffffffffffffffffffff1681526020018315158152602001600015158152602001600260009054906101000a900460ff166004811115610bfc57fe5b8152602001888152602001878152602001868152602001858152602001848152509050806003600060055481526020019081526020016000206000820151816000015560208201518160010160006101000a81548173ffffffffffffffffffffffffffffffffffffffff021916908373ffffffffffffffffffffffffffffffffffffffff16021790555060408201518160020160006101000a81548173ffffffffffffffffffffffffffffffffffffffff021916908373ffffffffffffffffffffffffffffffffffffffff16021790555060608201518160030160006101000a81548173ffffffffffffffffffffffffffffffffffffffff021916908373ffffffffffffffffffffffffffffffffffffffff16021790555060808201518160030160146101000a81548160ff02191690831515021790555060a08201518160030160156101000a81548160ff02191690831515021790555060c08201518160030160166101000a81548160ff02191690836004811115610d7857fe5b021790555060e08201518160040155610100820151816005019080519060200190610da49291906111c8565b50610120820151816006019080519060200190610dc29291906111c8565b5061014082015181600701556101608201518160080155905050600481908060018154018082558091505090600182039060005260206000209060090201600090919290919091506000820151816000015560208201518160010160006101000a81548173ffffffffffffffffffffffffffffffffffffffff021916908373ffffffffffffffffffffffffffffffffffffffff16021790555060408201518160020160006101000a81548173ffffffffffffffffffffffffffffffffffffffff021916908373ffffffffffffffffffffffffffffffffffffffff16021790555060608201518160030160006101000a81548173ffffffffffffffffffffffffffffffffffffffff021916908373ffffffffffffffffffffffffffffffffffffffff16021790555060808201518160030160146101000a81548160ff02191690831515021790555060a08201518160030160156101000a81548160ff02191690831515021790555060c08201518160030160166101000a81548160ff02191690836004811115610f4d57fe5b021790555060e08201518160040155610100820151816005019080519060200190610f799291906111c8565b50610120820151816006019080519060200190610f979291906111c8565b506101408201518160070155610160820151816008015550505060016005600082825401925050819055507f9150def77a74f13766541a58f83b5eaef24b3c77d9edb75a202a6bd7f37cc2e860016005540383600260009054906101000a900460ff16604051611009939291906117ef565b60405180910390a15050505050505050505050565b806000806101000a81548173ffffffffffffffffffffffffffffffffffffffff021916908373ffffffffffffffffffffffffffffffffffffffff16021790555050565b60006003600084815260200190815260200160002090508160048481548110151561108857fe5b906000526020600020906009020160030160166101000a81548160ff021916908360048111156110b457fe5b0217905550818160030160166101000a81548160ff021916908360048111156110d957fe5b0217905550505050565b6000806003600084815260200190815260200160002090508060030160169054906101000a900460ff16915050919050565b6101806040519081016040528060008152602001600073ffffffffffffffffffffffffffffffffffffffff168152602001600073ffffffffffffffffffffffffffffffffffffffff168152602001600073ffffffffffffffffffffffffffffffffffffffff1681526020016000151581526020016000151581526020016000600481111561119f57fe5b815260200160008152602001606081526020016060815260200160008152602001600081525090565b828054600181600116156101000203166002900490600052602060002090601f016020900481019282601f1061120957805160ff1916838001178555611237565b82800160010185558215611237579182015b8281111561123657825182559160200191906001019061121b565b5b5090506112449190611248565b5090565b61126a91905b8082111561126657600081600090555060010161124e565b5090565b90565b600061127982356118e8565b905092915050565b600061128d82356118fa565b905092915050565b60006112a182516118fa565b905092915050565b60006112b58235611906565b905092915050565b600082601f83011215156112d057600080fd5b81356112e36112de82611853565b611826565b915080825260208301602083018583830111156112ff57600080fd5b61130a83828461193b565b50505092915050565b600061131f823561191f565b905092915050565b60006020828403121561133957600080fd5b60006113478482850161126d565b91505092915050565b60008060008060008060008060006101208a8c03121561136f57600080fd5b600061137d8c828d0161126d565b995050602061138e8c828d0161126d565b985050604061139f8c828d0161126d565b97505060606113b08c828d01611281565b96505060806113c18c828d01611313565b95505060a08a013567ffffffffffffffff8111156113de57600080fd5b6113ea8c828d016112bd565b94505060c08a013567ffffffffffffffff81111561140757600080fd5b6114138c828d016112bd565b93505060e06114248c828d01611313565b9250506101006114368c828d01611313565b9150509295985092959850929598565b60006020828403121561145857600080fd5b600061146684828501611295565b91505092915050565b60006020828403121561148157600080fd5b600061148f84828501611313565b91505092915050565b600080600080608085870312156114ae57600080fd5b60006114bc87828801611313565b94505060206114cd8782880161126d565b93505060406114de87828801611281565b92505060606114ef87828801611313565b91505092959194509250565b6000806040838503121561150e57600080fd5b600061151c85828601611313565b925050602061152d858286016112a9565b9150509250929050565b6115408161188a565b82525050565b61154f8161189c565b82525050565b61155e81611929565b82525050565b600061156f8261187f565b80845261158381602086016020860161194a565b61158c8161197d565b602085010191505092915050565b6000610180830160008301516115b360008601826116a5565b5060208301516115c66020860182611537565b5060408301516115d96040860182611537565b5060608301516115ec6060860182611537565b5060808301516115ff6080860182611546565b5060a083015161161260a0860182611546565b5060c083015161162560c0860182611555565b5060e083015161163860e08601826116a5565b506101008301518482036101008601526116528282611564565b91505061012083015184820361012086015261166e8282611564565b9150506101408301516116856101408601826116a5565b5061016083015161169a6101608601826116a5565b508091505092915050565b6116ae816118de565b82525050565b60006020820190506116c96000830184611546565b92915050565b60006020820190506116e46000830184611555565b92915050565b60006020820190508181036000830152611704818461159a565b905092915050565b600060208201905061172160008301846116a5565b92915050565b60006101808201905061173d600083018f6116a5565b61174a602083018e611537565b611757604083018d611537565b611764606083018c611537565b611771608083018b611546565b61177e60a083018a611546565b61178b60c0830189611555565b61179860e08301886116a5565b8181036101008301526117ab8187611564565b90508181036101208301526117c08186611564565b90506117d06101408301856116a5565b6117de6101608301846116a5565b9d9c50505050505050505050505050565b600060608201905061180460008301866116a5565b6118116020830185611546565b61181e6040830184611555565b949350505050565b6000604051905081810181811067ffffffffffffffff8211171561184957600080fd5b8060405250919050565b600067ffffffffffffffff82111561186a57600080fd5b601f19601f8301169050602081019050919050565b600081519050919050565b6000611895826118be565b9050919050565b60008115159050919050565b60006005821015156118b657fe5b819050919050565b600073ffffffffffffffffffffffffffffffffffffffff82169050919050565b6000819050919050565b60006118f3826118be565b9050919050565b60008115159050919050565b600060058210151561191757600080fd5b819050919050565b6000819050919050565b6000611934826118a8565b9050919050565b82818337600083830152505050565b60005b8381101561196857808201518184015260208101905061194d565b83811115611977576000848401525b50505050565b6000601f19601f830116905091905056fea265627a7a7230582026d9dcb08d9cebee59410090b2a98a2550672f6c719d332980c54e0a00e3c3556c6578706572696d656e74616cf50037",
  "source": "pragma solidity >=0.4.21 <0.6.0;\npragma experimental ABIEncoderV2;\nimport './MediaContract.sol';\nimport './PlaylistContract.sol';\n\ncontract RentalContract {\n    //Import Contract\n    PlaylistContract playlistContract;\n    \n    //Playlist \n    uint playlist_Id;\n    \n    //-----------------Rentail Profile-----------------//\n    //Rental Status for Device Playing Status\n    enum RentalStatus { Init, Processing, Failed, Finished, Refounded }\n    RentalStatus enum_rentalstatus;\n    \n    //Rentail Mapping and Rental array\n    mapping(uint => RentalData) public RentalStores;\n    RentalData[] public RentalDataList;\n    \n    //Rental Id \n    uint RentalCount;\n    struct RentalData{  \n        uint RentalId;     // Rentail ID \n        address buyer;     // Account Buyer \n        address player;    // Account Player(Device)\n        address system;    // Account System\n        bool All_status;   // Check Media File, Buyer Wallet, Player Status\n        bool refounded;    // Check Wallet Refound Status\n        RentalStatus rental_status; // Check Rentail Status\n        uint cost;         // Get Cost\n        string start_time; // Get Start Time\n        string end_time;   //Get End Time \n        uint playlistid; // Playlist ID (Name)\n        uint Rentail_fee; // Rentail Fee \n    }\n    //Rentail Event Parameter\n    event RentalTask(uint id, bool All_status, RentalStatus rental_status);\n    \n    //----------------Add Playlist Contract Address----------------//\n    function AddPlaylist(address playlistAddress) public{\n        //Playlist Contract\n        playlistContract = PlaylistContract(playlistAddress);\n    }\n   //----------------Add Playlist Contract Address----------------//\n    \n    \n    //----------------Save Rentail Data----------------//\n    function SaveRental(address _buyer, address _player, address _system, bool _playerStatus, uint _cost, string memory _startTime, string memory _endTime, uint _playlistId, uint _rental_fee) public{\n        \n        bool all_status = CheckStatus(_playlistId, _buyer, _playerStatus, _rental_fee);\n        \n        enum_rentalstatus = RentalStatus.Init;\n        if(all_status==false){\n           enum_rentalstatus = RentalStatus.Failed;\n        }\n        RentalData memory rental_file = RentalData(RentalCount, _buyer, _player, _system, all_status, false, enum_rentalstatus, _cost, _startTime, _endTime, _playlistId, _rental_fee);\n\n        \n        RentalStores[RentalCount] = rental_file; \n\n        RentalDataList.push(rental_file);\n        RentalCount += 1;\n        \n        emit RentalTask(RentalCount-1, all_status, enum_rentalstatus);\n    }\n    //----------------Save Rentail Data----------------//\n    \n    //----------------Check Playlist, Buyer and Player is ready----------------//\n    function CheckStatus(uint _playlistId, address _buyer, bool playerStatus, uint _rental_fee) public view returns (bool) {\n        // Need to check media_status   \n        bool _media_status = playlistContract.getplaylistStatus(_playlistId);\n        // Check buyer cost \n        uint256 buyerConst = address(_buyer).balance;\n        // Check player Status\n        bool _player_status = playerStatus;\n\n        bool all_status = false;\n        if(_media_status && (buyerConst > _rental_fee) && _player_status){\n            all_status = true;\n        }\n        return all_status;\n    }\n    //----------------Check Playlist, Buyer and Player is ready----------------//\n\n    //----------------Get Rentail Lenght----------------//\n    function getRentalLength() public view returns (uint) {\n        return RentalDataList.length;\n    }\n    //----------------Get Rentail Lenght----------------//\n    \n    \n    //----------------Get Rentail Data from specific index----------------//\n    function getRental(uint _RentalId) public view returns (RentalData memory) {\n        RentalData storage b1 = RentalStores[_RentalId];\n        return b1;\n    }\n    //----------------Get Rentail Data from specific index----------------//\n    \n    //----------------Get Rentail Data from specific index----------------//\n    function getRentalStatus(uint _RentalId) public view returns (RentalStatus) {\n        RentalData storage b1 = RentalStores[_RentalId];\n        return b1.rental_status;\n    }\n    //----------------Get Rentail Data from specific index----------------//\n    \n    //----------------Update Rentail status----------------//\n    function updateRental(uint _RentalId, RentalStatus _Rental_Stauts)  public {\n        RentalData storage b1 = RentalStores[_RentalId];\n        RentalDataList[_RentalId].rental_status = _Rental_Stauts; \n        //Modify Rentail status Data\n        b1.rental_status = _Rental_Stauts;\n    }\n    //----------------Update Rentail status----------------//\n\n}",
  "sourcePath": "/Users/admin/Documents/Works/rentalsignage/contracts/RentalContract.sol",
  "compiler": {
    "name": "solc",
    "version": "0.5.0+commit.1d4f565a.Emscripten.clang"
  },
  "schemaVersion": "3.0.2",
  "updatedAt": "2019-03-22T05:17:41.111Z",
  "devdoc": {
    "methods": {}
  },
  "userdoc": {
    "methods": {}
  }
}